:100000000C943E010C947C0F0C94550F0C942E0F05
:100010000C94070F0C9466010C9466010C94E00E8E
:100020000C9466010C9466010C94EB0B0C94540C2C
:100030000C9466010C9466010C9466010C946601A4
:100040000C9466010C94A30F0C9466010C94660149
:100050000C9466010C9466010C9466010C94960E47
:100060000C9466010C9466010C9466010C94660174
:100070000C9466010C9466010C9466010C94660164
:100080000C9466010C9466010C9466010C94660154
:100090000C9466010C9466010C9466010C94660144
:1000A0000C9466010C9466010C946601003E80007D
:1000B00052F4F4D0003415004FF4F4D0001A0B00C1
:1000C0009DF4F4D0000D05013BF4F4D0000683024A
:1000D00075F3F3D000034104EAF2F2D000022C07DA
:1000E000AEE2E2D00001000800E1E1D000008010A3
:1000F00000E0E0D000024003334242D0013E8000E5
:1001000052F4F5D0013415004FF4F4D0011A0B006D
:100110009DF4F4D0010D05013BF4F4D001068302F7
:1001200075F3F3D001034104EAF2F2D001022C0787
:10013000AEE2E2D00101000800E1E1D00100801050
:1001400000E0E0D001024003334242D0087D0000CD
:10015000108888D008682B0010F1F1D00834150001
:1001600010F5F5D0081A0B0010F4F4D0080D0500B6
:1001700010F3F3D00806830010F2F2D00803E80071
:1001800010E2E2D000000000240027002A002D0029
:10019000300000000000250028002B002E00310058
:1001A000000000002300260029002C002F0004047A
:1001B0000404040304050202020204030202020210
:1001C00006060606060604040202020404040802E7
:1001D00001104080401020408040800802040180CF
:1001E000402010020110801020404020000000023A
:1001F00000090F0000030401000C000000000000D3
:100200000000000000000000000000080B000202D7
:100210000200000904000001020200000524001091
:10022000010524010101042402060524060001073A
:1002300005810310004009040100020A00000007C4
:100240000502024000000705830240000004030984
:100250000412010002EF0201409A230C8000010108
:1002600002030141646166727569740046656174D8
:1002700068657220333275340000FA1011241FBEF5
:10028000CFEFDAE0DEBFCDBF11E0A0E0B1E0E6ECF9
:10029000FAE202C005900D92AE3DB107D9F723E016
:1002A000AEEDB1E001C01D92A33FB207E1F711E04E
:1002B000CEE3D1E004C02197FE010E944D15CD335D
:1002C000D107C9F70E9492110C9461150C9400009B
:1002D00090911102911103C08FEF9FEF08954FB7D6
:1002E000F89492E09093E9009091F200292F30E089
:1002F0001216130614F421E030E0232B29F084E6D3
:10030000809310028091F100992339F02091F2003E
:10031000211103C02BE62093E8004FBF9923E1F29F
:1003200090E008952FB7F89483E08093E9009091CE
:10033000E800892F807295FF04C09091F20080E45C
:10034000891B2FBF08958091080281110DC082E0A2
:100350008093040284E080930502109207021092B9
:10036000060281E08093080284E092E00895E82F7D
:10037000F0E0EE0FFF1FE45FFE4F71836083823079
:1003800041F150F48130C9F0809169008C7F482B95
:1003900040936900E89A0895833041F18430A1F7D1
:1003A00080916A008F7C94E0440F551F9A95E1F785
:1003B000482B40936A00EE9A089580916900837FEC
:1003C000440F551F440F551F482B40936900E99A6D
:1003D0000895809169008F7C34E0440F551F3A9551
:1003E000E1F7482B40936900EA9A089580916900EB
:1003F0008F7326E0440F551F2A95E1F7482B409351
:100400006900EB9A08954091F3015091F401209115
:10041000F1013091F20142175307B4F49091E800D2
:100420009570E1F39091E80092FD19C08093F1007E
:100430008091F3019091F40101968F739927892B94
:1004400019F48EEF8093E8008091F3019091F4010C
:1004500001969093F4018093F30181E0089580E088
:100460000895DF92EF92FF920F931F93CF93DF9344
:10047000D82E8A01EB017B01E40EF51ECE15DF05B7
:1004800059F0D7FE12C0FE0184910E94030221960A
:100490008111F4CF0FEF1FEFC801DF91CF911F91B2
:1004A0000F91FF90EF90DF9008958881EECF0F932A
:1004B0001F93CF93DF931F92CDB7DEB782E089837E
:1004C00042E450E06BE072E080E80E9431020E945A
:1004D000A301DC0112960D911C910115110589F003
:1004E000D801ED91FC910280F381E02DBE016F5F98
:1004F0007F4FC801099597FD04C0F801008511855B
:10050000ECCF89810F90DF91CF911F910F910895CA
:10051000CF93DF931F92CDB7DEB76983DC01ED91F6
:10052000FC910280F381E02D41E050E0BE016F5F5D
:100530007F4F09950F90DF91CF91089583E08093CD
:10054000E9008091F200882319F08AE38093E800A3
:1005500008950E94920190E00895FC01848595859C
:1005600097FD05C02FEF3FEF3587248708950C9442
:100570006801CF93DF93EC018C859D8597FF04C0C4
:100580000E9468019D878C878C859D85DF91CF9126
:100590000895FC018485958597FD0BC09FB7F8945D
:1005A00082E08093E9008091F2009FBF90E0019685
:1005B00008959FB7F89482E08093E9008091F2005B
:1005C0009FBF90E0089581508F3008F047C0E82F1A
:1005D000F0E0E351FD4F0C944D150A030E03FC02AD
:1005E000020306032E032E032E03110317031B031E
:1005F0001F0325032E032903809180008F778093AA
:1006000080000895809180008F7DF9CF80918000D7
:10061000877FF5CF84B58F7784BD089584B58F7DAE
:10062000FBCF809190008F77809390000895809108
:1006300090008F7DF9CF80919000877FF5CF8091DA
:10064000C0008F778093C00008958091C0008F7D97
:10065000F9CF8091C200877F8093C2000895CF9325
:10066000DF93282F30E0F901E451FE4F8491F90126
:10067000E353FE4FD491F901E255FE4FC491CC23D0
:10068000A1F081110E94E302EC2FF0E0EE0FFF1FBA
:10069000E056FE4FA591B491EC91ED2381E090E0FE
:1006A00009F480E0DF91CF91089580E090E0FACFE7
:1006B000CF93DF9382E00E942F03EC0183E00E943E
:1006C0002F032091FD013091FE01A9014B5F5F4F87
:1006D0004B30510590F441E050E0C817D907B9F00C
:1006E000241B350B2D378FEF380754F03093FE0164
:1006F0002093FD01DF91CF91089542E050E0EDCFCE
:100700008DE79FEF9093FE018093FD01F3CF240FBF
:10071000351F83E890E024383105A4F7E7CF1F9315
:10072000CF93DF93282F30E0F901E451FE4F8491FD
:10073000F901E353FE4FD491F901E255FE4FC49104
:10074000CC23A9F0162F81110E94E302EC2FF0E0D8
:10075000EE0FFF1FEE56FE4FA591B4918FB7F894A0
:10076000EC91111108C0D095DE23DC938FBFDF918F
:10077000CF911F910895DE2BF8CFCF93DF9390E0B8
:10078000FC01E353FE4F249182559E4FFC0184915E
:100790008823C9F090E0880F991FFC01EC57FE4FA9
:1007A000A591B491FC01EE56FE4FC591D491611113
:1007B0000DC09FB7F8948C91209582238C938881EB
:1007C000282328839FBFDF91CF910895623051F491
:1007D0009FB7F8943C91822F809583238C93E88176
:1007E0002E2BEFCF8FB7F894EC912E2B2C938FBF3D
:1007F000EACF3FB7F8948091ED019091EE01A0917E
:10080000EF01B091F00126B5A89B05C02F3F19F06C
:100810000196A11DB11D3FBFBA2FA92F982F882780
:10082000BC01CD01620F711D811D911D43E0660F5A
:10083000771F881F991F4A95D1F708958F929F922D
:10084000AF92BF92CF92DF92EF92FF926B017C0149
:100850000E94F9034B015C01C114D104E104F104CD
:10086000B9F00E94F903681979098A099B09683E61
:1008700073408105910580F321E0C21AD108E10897
:10088000F10888EE880E83E0981EA11CB11CE4CF0D
:10089000FF90EF90DF90CF90BF90AF909F908F90A0
:1008A00008958F929F92AF92BF92CF92DF92EF9274
:1008B000FF920F931F93CF93DF936C017B018A010B
:1008C00080910B01882309F45BC080911102882379
:1008D00009F456C08091F70180FF05C08091E000C7
:1008E00082608093E000E801B12C8AEFA82E93E0AB
:1008F000892E2AE3922E209711F4BB20D9F10E9471
:10090000920181110AC0AA94AA20D1F161E070E09D
:1009100080E090E00E941E04EECF8C171D0611F0BF
:100920000CF08C2F9FB7F8948092E9002091E8009A
:1009300025FD02C09FBFDFCF282F30E0C21BD30BA5
:10094000F701815020F041914093F100FACFE20E7F
:10095000F31EBB2021F09092E800B12CEBCF8091E8
:10096000E80085FDE7CF9092E800BB24B394209780
:1009700009F3F3CF84E68093F601101611063CF0DC
:1009800081E090E0F6019383828310E000E0C801EB
:10099000DF91CF911F910F91FF90EF90DF90CF905B
:1009A000BF90AF909F908F9008952FB7F89460916B
:1009B000E9017091EA018091EB019091EC012FBF68
:1009C000089508958CE30895CF93DF93FC0122816D
:1009D00033812230310569F0EC01678D858D0E94ED
:1009E0008F0360E08C8D0E948F0382E090E09B83F8
:1009F0008A83DF91CF910895BF92CF92DF92EF92D9
:100A0000FF920F931F93CF93DF93EC01162FB42E19
:100A1000C52EF22EDFB6F894898D9A8DDC01ED910A
:100A2000FC910088F189E02D099560E08B8D0E9492
:100A30008F03898D9A8D612F6068DC01ED91FC91A7
:100A40000190F081E02D0995E82E0B2D1C2DFA94D4
:100A5000BFEFFB1669F0898D9A8DF80161918F01C6
:100A6000DC01ED91FC910190F081E02D0995EFCF33
:100A700061E08B8D0E948F03898D9A8DDC01ED9151
:100A8000FC910288F389E02D0995DFBE8E2DDF9160
:100A9000CF911F910F91FF90EF90DF90CF90BF907B
:100AA0000895FF920F931F93CF93DF93EC01162FBE
:100AB000F42E0FB7F894898D9A8DDC01ED91FC919D
:100AC0000088F189E02D099560E08B8D0E948F03ED
:100AD000898D9A8D612F6068DC01ED91FC91019008
:100AE000F081E02D0995182F898D9A8DDC01ED910B
:100AF000FC910190F081E02D6F2D099561E08B8DC7
:100B00000E948F03898D9A8DDC01ED91FC91028802
:100B1000F389E02D09950FBF812FDF91CF911F91B0
:100B20000F91FF900895CF93DF93FC0122813381D1
:100B30002130310549F0EC0140E061E00E945105AF
:100B400081E090E09B838A8381E0DF91CF910895DB
:100B50000F931F93CF93DF93EC01162F0FB7F894E9
:100B600060E08B8D0E948F03898D9A8DDC01ED9161
:100B7000FC910190F081E02D612F0995898D9A8D6E
:100B8000DC01ED91FC910190F081E02D60E0099590
:100B9000182F61E08B8D0E948F030FBF812FDF9193
:100BA000CF911F910F910895CF93DF93EC016DE3E7
:100BB0000E94A805482F4E7F6DE3CE01DF91CF91B3
:100BC0000C9451050F931F93CF938C01C62F61E0B6
:100BD0000E94A805837ECC714C2F482B61E0C80190
:100BE0000E94510567E2C8010E94A80587FFFACF5D
:100BF000CF911F910F910895CF93DF93FC01228134
:100C000033812330310529F1EC01828193810497EE
:100C1000D1F081A1823154F045E56AE5CF010E940F
:100C2000510540E76CE5CE010E94510540E465E2C4
:100C3000CE010E94510560E1CE010E94E20584E0F0
:100C400090E09B838A83C15ADF4F8881DF91CF91E7
:100C5000089580E0FBCFCF93DF93FC0122813381A5
:100C600022303105B1F0EC0181A1823154F045E52B
:100C70006AE5CF010E94510540E76CE5CE010E9474
:100C800051056F8DCE010E94E20582E090E09B83CA
:100C90008A83DF91CF910895BF92CF92DF92EF9236
:100CA000FF920F931F93CF93DF93EC01B62EC72EC5
:100CB000142F4D3360F000E0802FDF91CF911F9112
:100CC0000F91FF90EF90DF90CF90BF900895E88153
:100CD000F9810484F585E02D0995CE010E942B064B
:100CE000E881F9810288F389E02DCE010995082F6A
:100CF000882309F3DFB6F89460E08B8D0E948F03A0
:100D0000898D9A8DDC01ED91FC910190F081E02DAF
:100D100060E80995898D9A8DDC01ED91FC91019037
:100D2000F081E02D64E0610F0995898D9A8DDC01D9
:100D3000ED91FC910190F081E02D6A850995898DF6
:100D40009A8DDC01ED91FC910190F081E02D6B8595
:100D50000995898D9A8DDC01ED91FC910190F081CE
:100D6000E02D6C850995898D9A8DDC01ED91FC91C2
:100D70000190F081E02D6D850995EB2CFC2C115034
:100D800068F0898D9A8DF70161917F01DC01ED9109
:100D9000FC910190F081E02D0995F1CF61E08B8D00
:100DA0000E948F03DFBE8A819B81039709F484CF61
:100DB00089A1823154F04DE56AE5CE010E945105CA
:100DC0004CE76CE5CE010E94510540E065E2CE01A2
:100DD0000E9451056CE0CE010E94E20583E090E0A4
:100DE0009B838A8369CFEF92FF920F931F93CF93D8
:100DF000DF93EC0168E20E94A805182F8A819B818D
:100E0000039751F413FF08C0CE010E942B068C8972
:100E10009D8901969D8B8C8B8A819B81049709F01B
:100E2000ACC012FFAAC064E2CE010E94A80590E007
:100E3000959587959195819591099F878E870E94B9
:100E4000D504FE01E05AFF4F608371838283938350
:100E5000CE010E942B06EFB6F89460E08B8D0E94C5
:100E60008F03898D9A8DDC01ED91FC910088F189C9
:100E7000E02D0995898D9A8DDC01ED91FC91019011
:100E8000F081E02D60E00995898D9A8DDC01ED916E
:100E9000FC910190F081E02D60E00995082F8CEF26
:100EA000800F8D3308F05BC0898D9A8DDC01ED9148
:100EB000FC910190F081E02D60E009958E838D8199
:100EC000811108C09E818C81981721F08E818F3FFF
:100ED00009F045C0898D9A8DDC01ED91FC9101905E
:100EE000F081E02D60E009958F83898D9A8DDC017A
:100EF000ED91FC910190F081E02D60E009958887EB
:100F0000898D9A8DDC01ED91FC910190F081E02DAD
:100F100060E0099589871AA20450110B8AA18017F5
:100F200011069CF4898D9A8DFAA0DC01ED91FC915B
:100F30000190F081E02D60E00995FE01EF0DF11DBB
:100F400083A38AA18F5F8AA3E9CF8A899B890196AF
:100F50009B8B8A8B81E0FE01E15AFF4F808361E029
:100F60008B8D0E948F03898D9A8DDC01ED91FC9110
:100F70000288F389E02D0995EFBEDF91CF911F9193
:100F80000F91FF90EF9008958091E6019091E70115
:100F9000009711F00C94F30608958091E40190916C
:100FA000E501009711F00C94F30608958091E20199
:100FB0009091E301009711F00C94F3060895CF93FC
:100FC000DF93EC01898D9A8DDC01ED91FC91068017
:100FD000F781E02D099561E08B8D0E94BD0361E0F2
:100FE0008B8D0E948F0364E670E080E090E00E94A9
:100FF0001E0481E0DF91CF91089508958091E00172
:10100000882361F09FB7F8942091E0018091DF017F
:10101000213019F48DBB9FBF08958FBF0895FC0147
:10102000208591858091E001882361F08FB7F89445
:101030003091E001313049F43DB33093DF013DB3ED
:101040003DBB8FBF2CBD9DBD08958093DF01FACFBE
:101050009FB7F8948091DE01882319F08150809326
:10106000DE018091DE01811105C08CB58F7B8CBDC6
:101070001092E0019FBF08958CB58F778CBD0895C5
:101080008CB580688CBD08956EBD00000DB407FE60
:10109000FDCF8EB50895FC01738362830895FC0132
:1010A000778366830895FC017583648308950895AA
:1010B0000895FC01848995890895FC0182899389AA
:1010C0000895FC0180899189089580E00895FC01CC
:1010D000738362830895FC01828193810895FC01EA
:1010E000868597850895FC0181850895FC0180859A
:1010F0000895FC0187810895FC018681089540953B
:10110000FC0125854223642B65870895FC016487D3
:101110000895FC0163870895FC0162870895FC012E
:1011200064830895FC01658308958F929F92AF9226
:10113000BF92CF92DF92EF92FF92CF93DF93EC01B9
:101140006B010E94D5044B015C01F12CE12C0E9443
:10115000D504681979098A099B096C157D058E05E6
:101160009F0580F48A819B81039789F381E0DF9159
:10117000CF91FF90EF90DF90CF90BF90AF909F9076
:101180008F90089580E0F3CFFC01228133812330DA
:101190003105D1F381E008958F929F92AF92BF9273
:1011A000CF92DF92EF92FF92CF93DF93EC016B012E
:1011B0000E94D5044B015C01F12CE12C0E94D50466
:1011C000681979098A099B096C157D058E059F05AB
:1011D000A0F4E881F9810280F381E02DCE01099528
:1011E000882361F3DF91CF91FF90EF90DF90CF9054
:1011F000BF90AF909F908F90089580E0F3CFCF93F2
:10120000DF93EC01E881F9810280F381E02DCE01CA
:1012100009958823B9F3DF91CF91089581E008956E
:1012200083E10E942F03892B29F010920202109271
:101230000102089582E10E942F03892B39F081E099
:1012400090E09093020280930102089585E10E944C
:101250002F03892B19F082E090E0F3CF84E10E9404
:101260002F03892B19F083E090E0EBCF8FEF9FEFF6
:10127000E8CFFC0101900020E9F73197AF01481B4E
:10128000590BBC0182E192E00C9451048F929F9221
:10129000AF92BF92CF92DF92EF92FF920F931F9384
:1012A000CF93DF93CDB7DEB7A1970FB6F894DEBF2B
:1012B0000FBECDBF6C01990FEE08FF08F7FE47C0C7
:1012C0006DE282E192E00E9488028C01222733279E
:1012D000A9012C193D094E095F0919A2CE01819679
:1012E0007C019AE0892E912CA12CB12CCA01B90164
:1012F000A50194010E941C15605DF70162937F01B6
:10130000211531054105510589F790E080E03097BE
:1013100019F0CF010E943909080F191F81EB91E0E4
:101320000E943909800F911FA1960FB6F894DEBF75
:101330000FBECDBFDF91CF911F910F91FF90EF9026
:10134000DF90CF90BF90AF909F908F900895A701AE
:10135000960119A28E010F5D1F4F8AE0C82ED12C75
:10136000E12CF12CCA01B901A70196010E941C15BC
:10137000605DF80162938F0121153105410551052A
:1013800089F7309729F0CF010E9439098C01C6CF27
:1013900010E000E0C3CF0E945315CF92DF92EF928E
:1013A000FF920F931F93CF93DF93EC016B018A01A0
:1013B000E881F9810280F381E02D0995F82E8823D8
:1013C000E1F0C114D104B1F00115110599F0EFB6A7
:1013D000F8948AA1F8019081891710F48AA180837A
:1013E000F801408150E0BE016D5D7F4FC6010E9453
:1013F0005815EFBEC15ADF4F18828F2DDF91CF9164
:101400001F910F91FF90EF90DF90CF900895EF9292
:10141000FF920F931F93CF93DF93CDB7DEB72A9739
:101420000FB6F894DEBF0FBECDBF8C010E94DF0760
:10143000E82E81110FC0E12C8E2D2A960FB6F8945C
:10144000DEBF0FBECDBFDF91CF911F910F91FF90F7
:10145000EF900895D8015D968C91882309F4C8C057
:10146000813009F4C8C0823009F4C8C0833009F45F
:10147000C8C044E0F42E8730F1F6F801818D928DDA
:10148000DC01ED91FC910488F589E02D6F2D099523
:1014900060E1C8010E94A805F80180A381508E3F39
:1014A00050F660E0858D0E94BD03D8015E968C9158
:1014B0005E978F3F59F48091E101843008F0BBCFF3
:1014C00091E0980F9093E1015E968C93F801868DE0
:1014D000E82FF0E0EE0FFF1FEE51FE4F1183008367
:1014E00043E050E066ED77E0882369F043E050E0A8
:1014F0006DEC77E0813039F0823009F09CCF43E029
:1015000050E064EC77E08F2D0E94B701C8010E9483
:101510002B064FE86CE3C8010E94510540E36FE6DB
:10152000C8010E94510545E56AE5C8010E945105C0
:1015300040E76CE5C8010E9451058DE2898784ED82
:101540008A876EE2C8010E94A805F82E22E0AE014B
:10155000475F5F4F6FE2C8010E94FC044F2D477C3C
:1015600048686EE2C8010E94510548E050E06CE313
:1015700071E0CE0101960E94E11425E0AE014F5FBB
:101580005F4F62E0C8010E94FC0422E0AE014A5FA6
:101590005F4F69E1C8010E94FC04488567E3C80108
:1015A0000E94510540E06CE2C8010E94510544E0F0
:1015B0006DE2C8010E9451054CE667E0C8010E9437
:1015C000510540E868E0C8010E94510540E069E02B
:1015D000C8010E945105C8010E94D4058DE0D801C0
:1015E00091968C934FE961E1C8010E94510524CF87
:1015F00032E0F32E42CF23E0F22E3FCFFF24F394CC
:101600003CCFF12C3ACF0F931F93CF93FC018281F3
:10161000938140E054E264EF70E084309105C1F0C2
:1016200040E052E16AE770E08330910589F040E0E4
:1016300059E06DE370E08230910551F040E452E4EE
:101640006FE070E0019721F440E854E86EE170E04B
:10165000A481B58186819781009709F466C08130A5
:10166000910509F45EC08230910509F45CC00397CE
:1016700009F05BC08CE000E019E02DE330E090E081
:10168000401751076207730740F436952795179561
:1016900007959F5F9630A1F797E021E0292730E575
:1016A000119709F430E72695282B232B2087909556
:1016B00091709187CFB7F8948091DE01811127C096
:1016C000EFEBF1E08491EEEDF1E09491E82FF0E0A2
:1016D000EE0FFF1FEC57FE4FA591B491EC91E9235B
:1016E00021F461E081E10E948F0361E081E10E94C9
:1016F000BD038CB580618CBD8CB580648CBD61E010
:101700008FE00E94BD0361E080E10E94BD038091F3
:10171000DE018F5F8093DE01CFBFCF911F910F91CC
:10172000089584E0A8CF88E0A6CF80E0A4CF8F9270
:101730009F92AF92BF92CF92DF92EF92FF92CF93A0
:10174000DF93FC012789308D232BB9F1EC010E9436
:10175000D5044B015C0189E0C82ED12CE12CF12C81
:10176000E881F9810488F589E02DCE010995882367
:1017700021F10E94D504AB01BC01481959096A093D
:101780007B098F89988DB0E0A0E084179507A607A4
:10179000B707F8F00E948914A70196010E94EA1485
:1017A0009B01AC012F5F3F4F4F4F5F4FA4E6B0E06E
:1017B0000E9409150E941E04D3CF81E0DF91CF91D2
:1017C000FF90EF90DF90CF90BF90AF909F908F9061
:1017D000089580E0F3CF1F920F920FB60F9211245D
:1017E0008F939F938091E1009091E100937F90937C
:1017F000E10083FF0FC01092E90091E09093EB00AD
:101800001092EC0092E39093ED001092110298E098
:101810009093F00082FF1CC093E09093E9009091B8
:10182000F200992319F09AE39093E8009091F60161
:10183000992329F09091F60191509093F60190919F
:101840001002992329F09091100291509093100268
:1018500084FF18C08091E2008E7E81608093E20058
:101860008091E1008F7E8093E1008091F7018E7E70
:1018700080618093F7019F918F910F900FBE0F9021
:101880001F90189580FFF7CF8091E2008E7E8061D7
:101890008093E2008091E1008E7E8093E100809150
:1018A000F7018E7E8160E5CF1F920F920FB60F92E7
:1018B0001124CF92DF92EF92FF920F931F932F93F9
:1018C0003F934F935F936F937F938F939F93AF93C8
:1018D000BF93EF93FF93CF93DF93CDB7DEB76C97B2
:1018E000DEBFCDBF1092E9008091E80083FF2FC0DA
:1018F00089E0FE017596EE2EDF2E815029F0909141
:10190000F10090833196F9CF84E68093100282EF44
:101910008093E8008D8987FF39C09091E80090FF9F
:10192000FCCF982F907609F033C19E894F89588D4E
:101930002F89F88C911131C0803861F58091F801C0
:101940008093F1001092F1008EEF8093E8006C9686
:101950000FB6F894DEBF0FBECDBFDF91CF91FF91E0
:10196000EF91BF91AF919F918F917F916F915F9117
:101970004F913F912F911F910F91FF90EF90DF902A
:10198000CF900F900FBE0F901F9018959EEF9093E1
:10199000E800C7CF1092F100D5CF913059F48111F2
:1019A000D3CF4130510581F68091F8018D7F80932E
:1019B000F801CACF933049F48111C6CF41305105A7
:1019C00019F68091F8018260F2CF953041F4809150
:1019D000E80080FFFCCF20682093E300B5CF96306D
:1019E00009F0A8C00B8D1C8D22E01092E900109226
:1019F000F4011092F301F2122EC01092F201109233
:101A0000F1010E9457021F8299E09983FA8291E0C6
:101A10009E8390EA98879AEF99872091F3013091FD
:101A2000F401275F3F4F3C832B838D831092E900A5
:101A30001092F4011092F3011093F2010093F1015E
:101A400049E050E0BE016F5F7F4F80E00E943102AD
:101A50000E94570279CF1093F2010093F1010E9486
:101A6000A301DC0112960D911C910115110509F4D9
:101A700057C1D801ED91FC910480F581E02D6E2DC8
:101A80007D2DC8010995009709F045C1F801008531
:101A90001185EBCFF3E0FF120EC08F89882309F484
:101AA00040C0823061F440E86CE08CE692E00E9435
:101AB000C710811149CF81E28093EB0048CF81307C
:101AC00029F440E868E083E692E0F1CF833099F7AB
:101AD0000E94A301DC011296ED90FC908E010F5F35
:101AE0001F4F6801E114F10479F0D701ED91FC91E9
:101AF0000680F781E02DB801C7010995080F111D77
:101B0000F701E084F184EECFD8011C92F601019038
:101B10000020E9F73197BF016C197D0940E0C6014B
:101B2000C6CF6DE472E0FB01449150E080E80E9472
:101B300031020ACF973009F4BECF983021F481E00A
:101B40008093F10001CF993009F0FECE837009F047
:101B5000B2CFEBE3F1E081E031E096E32191222383
:101B600071F08093E9003093EB00DF0111972C9125
:101B70002093EC009093ED008F5F873079F78EE72C
:101B80008093EA001092EA008F8980931102DCCEE4
:101B90008B8D9C8D1092E9001092F4011092F3014C
:101BA0009093F2018093F101898D81119AC08E8901
:101BB0009D89913A49F4813209F07DCF47E050E0A8
:101BC00064E071E080E0B3CF913209F074CF8332EA
:101BD00069F48F89988DB0E0A0E080930001909324
:101BE0000101A0930201B0930301AECE8032A9F4AB
:101BF0008091E80082FFFCCF88E0E4E0F1E08150D2
:101C000029F09091F10090833196F9CF84E680938A
:101C100010028BEF8093E80097CE823209F094CEC9
:101C20008F8980930B01EEEFFFE7859194918B3FB5
:101C30009C4D51F1E0E0F8E08091040190910501A4
:101C4000A0910601B0910701803B9440A105B10528
:101C5000F1F480910B0180FD1AC0EE3F8AE0F80795
:101C600089F587E797E7918380838091600080936F
:101C7000F50188E19BE00FB6F894A8958093600089
:101C80000FBE9093600060CEEEEFFAE0D5CF80817A
:101C900091818737974709F057CEA89580916000CA
:101CA0008861809360008091F50180936000EE3F31
:101CB0002AE0F20789F08091FE0A9091FF0A918351
:101CC000808342CE808191818737980751F290932B
:101CD000FF0A8093FE0AC5CF1092FF0A1092FE0AF7
:101CE00033CE0E94A301DC0112960D911C910115C7
:101CF000110509F4E0CED801ED91FC910190F0813D
:101D0000E02D6E2D7D2DC801099581111DCEF801A4
:101D100000851185ECCF181619060CF415CECBCE24
:101D2000F1E0FF12B7CE61E572E0FDCE1F920F9297
:101D30000FB60F9211242F933F938F939F93AF93DE
:101D4000BF938091E9019091EA01A091EB01B091DC
:101D5000EC013091E80126E0230F2D3758F502966B
:101D6000A11DB11D2093E8018093E9019093EA0140
:101D7000A093EB01B093EC018091ED019091EE0105
:101D8000A091EF01B091F0010196A11DB11D8093CA
:101D9000ED019093EE01A093EF01B093F001BF919C
:101DA000AF919F918F913F912F910F900FBE0F9008
:101DB0001F90189529E8230F0396A11DB11DD2CFBE
:101DC0001F920F920FB60F9211242F933F934F93B0
:101DD0005F936F937F938F939F93AF93BF93EF9393
:101DE000FF93E0911401F09115010995FF91EF9196
:101DF000BF91AF919F918F917F916F915F914F9123
:101E00003F912F910F900FBE0F901F9018951F922A
:101E10000F920FB60F9211242F933F934F935F931E
:101E20006F937F938F939F93AF93BF93EF93FF93A2
:101E3000E0911201F09113010995FF91EF91BF918B
:101E4000AF919F918F917F916F915F914F913F9152
:101E50002F910F900FBE0F901F9018951F920F9209
:101E60000FB60F9211242F933F934F935F936F936D
:101E70007F938F939F93AF93BF93EF93FF93E091E3
:101E80001001F09111010995FF91EF91BF91AF9170
:101E90009F918F917F916F915F914F913F912F9182
:101EA0000F900FBE0F901F9018951F920F920FB6B4
:101EB0000F9211242F933F934F935F936F937F93D0
:101EC0008F939F93AF93BF93EF93FF93E0910E0196
:101ED000F0910F010995FF91EF91BF91AF919F9103
:101EE0008F917F916F915F914F913F912F910F90C3
:101EF0000FBE0F901F9018951F920F920FB60F9262
:101F000011242F933F934F935F936F937F938F93FE
:101F10009F93AF93BF93EF93FF93E0910C01F091E8
:101F20000D010995FF91EF91BF91AF919F918F9115
:101F30007F916F915F914F913F912F910F900FBEC5
:101F40000F901F9018951F920F920FB60F921124A9
:101F50002F933F934F935F936F937F938F939F93B1
:101F6000AF93BF93EF93FF93809102009091030092
:101F7000049709F0C2C080911B000E942F0321E04A
:101F8000892B09F420E080911E00922F98272817B2
:101F900019F083B18F5F83B982B18917F1F184B1F0
:101FA0002DE1803508F42BE084B1820F84B992B919
:101FB00084B1803A08F46EC086B197B19695879542
:101FC00097B986B983B1853028F086B197B198600A
:101FD00097B986B984B1805A84B913B885B188237A
:101FE00009F480C088B18F5F88B98C3008F452C082
:101FF00086B197B1982F9F73892F869586958870A3
:1020000028E0280F281769F0E82FF0E0E65DFE4F82
:102010003081931739F08F5FF5CF84B18C5E84B92E
:10202000C7CF80E090E1899F9001112486B197B1DC
:1020300036E0969587953A95E1F7482F95958795DF
:1020400095958795887098E0980F981749F0E82F34
:10205000F0E0E65DFE4F5081451719F08F5FF5CF38
:1020600080E0822B90916D00911125C080936C00CF
:1020700090916C00973020F090916C009434D8F0DF
:1020800015B8809110009091110001969093110065
:1020900080931000FF91EF91BF91AF919F918F912D
:1020A0007F916F915F914F913F912F910F900FBE54
:1020B0000F901F901895E0916D0091E09E0F909306
:1020C0006D00F0E081A790916D0080916C009817F1
:1020D00038F015B881E080B990E080E00E94E40417
:1020E00018B8D8CF86B197B188339B4099F681E074
:1020F00085B918B810926D00CDCF809102009091F3
:102100000300039739F68091700091E0980F909347
:102110007000811113C0E0916E008091FF00E817FC
:10212000A8F090E080E00E94E40480911400909177
:102130001500019690931500809314008091700013
:10214000883008F4A7CF10927000A4CFF0E0EF58C9
:10215000FF4F608170E080916F0091E0980F909345
:102160006F0002C0759567958A95E2F7617080915E
:102170001C000E948F0380916F008630F8F210924D
:102180006F0080916E008F5F80936E00D7CFEF92CB
:10219000FF920F931F93CF93DF93F82E192FE62E04
:1021A000042F81E0860F880F0E94030283E00E94C3
:1021B0000302CF2DD12FEC0EFD2EF11CCE15DF0525
:1021C000B9F007FF13C0FE0184910E940302182F8B
:1021D00080E00E940302812321968111EFCFDF91DD
:1021E000CF911F910F91FF90EF9008958881EDCFCF
:1021F00081E0F5CFE2E1F2E01382128288EE93E013
:10220000A0E0B0E084839583A683B7838DE491E05A
:10221000918380838FEF9FEF95878487A5E8B3E054
:1022200013961C921E92129715961C921E9214974A
:1022300017961C921E9216978FE591E011969C932B
:102240008E9380E518968C93189781E019968C935D
:102250001997EFE8F3E0138212828FEF848382876D
:10226000838714861586118A108A138A128A158A22
:10227000148A108E178AB28FA18F98E0938F29E766
:1022800031E03183208397E0958F94E0978F868F9C
:10229000AAE7B2E01196FC93EE9385E612968C9332
:1022A000129713961D921D921D921C9216971796C7
:1022B0001C92179788EC90E019969C938E93189730
:1022C00083E01A968C93E5E8F2E080E091E0DF018C
:1022D0009C011D9221503040E1F7E2E6F2E01382CA
:1022E000128281E090E09583848329EC30E0318391
:1022F000208311861086938782872AEC30E037830B
:10230000268317861686918B808B2BEC30E03587E1
:102310002487158A148A978B868B8CEC90E0938B9C
:10232000828B0895CF93DF93CDB7DEB760970FB65A
:10233000F894DEBF0FBECDBF789484B5826084BDB3
:1023400084B5816084BD85B5826085BD85B58160B9
:1023500085BD80916E00816080936E001092810037
:1023600080918100826080938100809181008160F2
:1023700080938100809180008160809380008091B3
:1023800091008260809391008091910081608093A0
:102390009100809190008160809390008091C100B5
:1023A00084608093C1008091C10082608093C100ED
:1023B0008091C10081608093C1008091C3008160E1
:1023C0008093C3008091C00082608093C0008091A0
:1023D000C20081608093C20080917A008460809303
:1023E0007A0080917A00826080937A0080917A00EE
:1023F0008E7F80937A0080917A00806880937A0043
:10240000109211021092F8011092F7018091D700FA
:1024100081608093D70080EA8093D80089B58F7E51
:1024200089BD89B5826089BD09B400FEFDCF61E038
:1024300070E080E090E00E941E048091D8008F7CC4
:1024400080618093D8008091E000807F8093E000DD
:102450008091E1008E7E8093E1008DE08093E20028
:102460008FEF9FEF90931F0280931E0280917A025C
:1024700090917B02DC01ED91FC910190F081E02DC7
:1024800009958823E1F010917C0280917A02909165
:102490007B02DC01ED91FC910688F789E02D612F2C
:1024A000099580917A0290917B02DC01ED91FC917B
:1024B000028CF38DE02D612F099510937C0249ED7C
:1024C00067E08FE893E00E94510540E068E08FE804
:1024D00093E00E94510540E069E08FE893E00E949C
:1024E000510584E18093B0034FE761E18FE893E009
:1024F0000E94510580E1EAE1F1E0DE0111960190D0
:102500000D928A95E1F720E1AE014F5F5F4F6EE3D8
:102510008FE893E00E94FC046DE38FE893E00E9453
:10252000A805482F41606DE38FE893E00E945105B4
:1025300082E390E0909383028093820262E086E1DE
:102540000E94BD0362E082E00E94BD0362E083E07E
:102550000E94BD0388E593E090930D0180930C01E8
:10256000809169008C7F816080936900E89A60E0C7
:1025700083E10E94BD0360E082E10E94BD0360E050
:1025800085E10E94BD0360E084E10E94BD0361E03B
:102590008AE00E94BD0361E08BE00E94BD0361E020
:1025A0008CE00E94BD0361E08DE00E94BD0362E00B
:1025B00087E10E94BD0361E086E00E94BD0361E007
:1025C00089E00E94BD030E94100980910102909150
:1025D0000202909300028093FF01AA24AA94BA2CCD
:1025E000CC24C394D12C50E0652E50E0752E552498
:1025F000539488248A94982C87E10E942F03892B76
:10260000C9F11092030280910302882309F476C075
:1026100084EB91E00E94390981EB91E00E94390935
:1026200061E086E00E948F0361E089E00E948F03F1
:10263000909200028092FF0121E4E22E21E0F22E2E
:1026400002E612E0B2E0023F1B07B9F0F701808119
:10265000F2E0EF0EF11C60E00E948F03D8011396A8
:102660001C921E9212971596DC92CE9214970A5FD6
:102670001F4FE8CF50920302C6CF0E94D50460934B
:10268000F9017093FA018093FB019093FC010E9481
:10269000D5040091F9011091FA012091FB013091CC
:1026A000FC01601B710B820B930B603D7740810531
:1026B0009105B0F487E10E942F03892B51F00E940D
:1026C000D5046093F9017093FA018093FB01909314
:1026D000FC0164E670E080E090E00E941E04D7CF29
:1026E00060E086E00E948F0360E089E00E948F0333
:1026F00068EE73E080E090E00E941E040E941009E2
:102700008EEB91E00E9439098091010290910202C2
:102710000E94460986E10E942F0380910102909158
:1027200002028F3F9807A9F460E086E00E948F03C1
:1027300060E089E00E948F0364E670E080E090E052
:102740000E941E046114710409F456CF0E94000017
:1027500053CF2091FF01309100028217930741F17E
:1027600026E0289FF001299FF00D1124EE59FD4F1E
:10277000228133812115310511F02B5F3F4F46E057
:10278000489FF001499FF00D1124EE59FD4F6481DF
:102790007581629FA001639F500D729F500D11249F
:1027A0005093FE014093FD01909300028093FF013E
:1027B000E090FD01F090FE018EEC91E00E9439095D
:1027C000C7010E944609C7010596009101021091B8
:1027D00002020B97D8F486E0809FF001819FF00DF4
:1027E0001124EE59FD4F13821282D582C48260E01B
:1027F0000E948F0360E089E00E948F03000F111F89
:10280000F801EF5BFE4F60E0808194CF86E0809F0F
:10281000F001819FF00D1124EE59FD4FC701F7FE25
:1028200004C0882799278E199F090597938382836F
:10283000F801EE0FFF1FEF5BFE4F408086E0809FA8
:10284000F001819FF00D1124EE59FD4FF7FE0CC0F1
:10285000B582A48260E00E948F0361E089E00E945B
:102860008F0361E0842D66CFD582C48260E089E069
:102870000E948F0361E086E0F2CF8F929F92AF9229
:10288000BF92CF92DF92EF92FF92CF93DF93EC0152
:10289000688179818A819B81611571058105910526
:1028A00021F464E279ED8BE597E02DE133EF41E02F
:1028B00050E00E94EA1449015A019B01AC01A7EAC9
:1028C000B1E40E9409156B017C01ACEEB4EFA501E7
:1028D00094010E941715C60ED71EE81EF91EF7FEBA
:1028E00006C081E0C81AD108E10880E8F80AC88269
:1028F000D982EA82FB82C701B6019F77DF91CF912F
:10290000FF90EF90DF90CF90BF90AF909F908F900F
:1029100008958F929F92AF92BF92CF92DF92EF92E3
:10292000FF926091160170911701809118019091AA
:102930001901611571058105910521F464E279EDB4
:102940008BE597E02DE133EF41E050E00E94EA147F
:1029500049015A019B01AC01A7EAB1E40E940915A3
:102960006B017C01ACEEB4EFA50194010E94171538
:10297000C60ED71EE81EF91EF7FE06C081E0C81A73
:10298000D108E10880E8F80AC0921601D092170138
:10299000E0921801F0921901C701B6019F77FF90EC
:1029A000EF90DF90CF90BF90AF909F908F90089561
:1029B0006093160170931701809318019093190189
:1029C0000895FB01DC0102C005900D92415050407A
:1029D000D8F70895052E97FB1EF400940E94011568
:1029E00057FD07D00E941C1507FC03D04EF40C9431
:1029F000011550954095309521953F4F4F4F5F4FB2
:102A0000089590958095709561957F4F8F4F9F4F5A
:102A100008950E943E15A59F900DB49F900DA49F10
:102A2000800D911D11240895B7FF0C9409150E9483
:102A30000915821B930B0895A1E21A2EAA1BBB1B3A
:102A4000FD010DC0AA1FBB1FEE1FFF1FA217B3077A
:102A5000E407F50720F0A21BB30BE40BF50B661F90
:102A6000771F881F991F1A9469F760957095809554
:102A700090959B01AC01BD01CF010895A29FB001CB
:102A8000B39FC001A39F700D811D1124911DB29FA2
:102A9000700D811D1124911D0895EE0FFF1F0590EB
:102AA000F491E02D099481E090E0F8940C94611584
:102AB000FB01DC0102C001900D9241505040D8F75B
:062AC0000895F894FFCF19
:102AC600FFFFFFFF00E1000000000000E104E10459
:102AD600E104E104E104010000000A0B0A0D0C0AFE
:102AE6000F0E0D0E0A0D0B0E0E0F0D0E13151619E9
:102AF6001A1C232526292A2C323400C18081000085
:102B0600000A000B000C000D0000000000880251B6
:102B160004A9029E02C902AD02B9020000000044E7
:102B26000840083C08030B280853084F084B080FB9
:102B360008FE07FD0700000000070AFC05CD094C4A
:102B460006E204FF08C4089508CC08970B65088FB1
:102B5600088C08890886087F0892087C0879087618
:102B66000873086F086B086708930561085D0859C4
:102B7600080D0A00452053746F7070656400437534
:102B86007272656E7420547261696E3A20004375E4
:0E2B96007272656E742053706565643A20009B
:1070000055C000006EC000006CC000006AC00000E7
:1070100068C0000066C0000064C0000062C00000DC
:1070200060C000005EC00000DAC400005AC000006A
:1070300058C0000056C0000054C0000052C00000FC
:1070400050C0000076C000004CC000004AC00000E4
:1070500048C0000046C0000044C0000042C000001C
:1070600040C000003EC000003CC000003AC000002C
:1070700038C0000036C0000034C0000032C000003C
:1070800030C000002EC000002CC000002AC000004C
:1070900028C0000026C0000024C0000022C000005C
:1070A00020C000001EC000001CC0000011241FBE34
:1070B000CFEFDAE0DEBFCDBF11E0A0E0B1E0EEEF50
:1070C000FEE702C005900D92AA3CB107D9F711E086
:1070D000AAECB1E001C01D92A03EB107E1F781D357
:1070E0000CC78ECFF89410926F001092810010920E
:1070F00085001092840081E085BF15BE47980C94EE
:10710000000008952091D4013091D5012F5F3F4FA9
:107110003093D5012093D401932F37FF03C08EEF16
:10712000831B982F990F921710F447980895479A48
:1071300008951F920F920FB60F9211242F938F93E1
:107140009F93EF93FF93109285001092840080919B
:10715000CA019091CB01009729F001979093CB0140
:107160008093CA018091CC019091CD01009729F0C4
:1071700001979093CD018093CC01E0E0F0E0859100
:1071800094918F5F9F4F49F08091CE019091CF01F4
:1071900001969093CF018093CE01FF91EF919F9143
:1071A0008F912F910F900FBE0F901F90189584E034
:1071B0008093E9000DC08091E8008B778093E80010
:1071C00003C08EB3882351F08091E80082FFF9CF8D
:1071D0008091E80085FFEFCF8091F1000895982F0E
:1071E00083E08093E9008091E80085FD0DC08091E7
:1071F000E8008E778093E80003C08EB3882361F0A7
:107200008091E80080FFF9CF9093F10084E690E050
:107210009093CB018093CA0108954F925F926F9231
:107220007F928F929F92AF92BF92CF92DF92EF9216
:10723000FF920F931F93CF93DF9384E08093E90035
:107240008091E80082FF56C284E690E09093CD01E1
:107250008093CC01ACDF182F853481F48CE195E26A
:107260009093CF018093CE0107B600FCFDCFF99932
:10727000FECF81E180935700E89503C0843519F46F
:1072800096DF8DE00DC28C34E1F38035D1F3843785
:1072900021F484E4A4DF80E003C2813611F489E59F
:1072A000FFC18134B1F483DF182F81DF90E0880FB4
:1072B000991FAA2797FDA095BA2F312F330F20E0F1
:1072C000442737FD4095542F822B932BA42BB52BAD
:1072D000B8C1803711F483E5E3C1833549F4C0E0D8
:1072E000D1E089917CDF21E0C730D207D1F7D9C145
:1072F000863521F481E373DF80E3D2C1833731F433
:1073000087E86DDF85E96BDF8EE1CAC18536B9F4A8
:10731000E0E0F0E093E085E090935700E89507B651
:1073200000FCFDCF80935700E89507B600FCFDCF29
:10733000E058FF4FA0E7E030FA0771F7A2CF82379D
:1073400039F4E1E0F0E089E0809357008491A8C12E
:10735000863439F4E0E0F0E089E0809357008491CE
:107360009FC18E3439F4E3E0F0E089E08093570068
:10737000849196C1813539F4E2E0F0E089E08093B0
:10738000570084918DC1823631F489E528DF80E091
:1073900026DF80E885C1823419F0873609F0E5C020
:1073A0001092CF011092CE0102DF082F00DFF82EDD
:1073B000FEDE682E8554823008F071C1902F80E087
:1073C000CF2DD0E0C82BD92B10926F00173609F0C3
:1073D0004BC081E180935700E895DD24CC24C39411
:1073E0003FC0E090D001F090D1010091D201109106
:1073F000D301B6E46B16D9F4ED2DF0E0EE29FF29A8
:10740000E4918E2FECDEDD2081F082E090E0A0E0C0
:10741000B0E0E80EF91E0A1F1B1FE092D001F092A7
:10742000D1010093D2011093D301DC2418C0D801FC
:10743000C701B695A7959795879549D5D0DE82E087
:1074400090E0A0E0B0E0E80EF91E0A1F1B1FE092DA
:10745000D001F092D1010093D2011093D301219772
:10746000209709F0BECF7DC08090D0019090D101CF
:10747000A090D201B090D30196E4691609F05DC0E6
:1074800083E0F40180935700E89507B600FCFDCF38
:1074900054C0F6E46F1661F5772031F1E090D00129
:1074A000F090D1010091D2011091D30180DED82E4D
:1074B000CC24852D90E08C299D29F7010C01409268
:1074C0005700E895112482E090E0A0E0B0E0E80EDB
:1074D000F91E0A1F1B1FE092D001F092D101009308
:1074E000D2011093D30102C062DE582E742423C04F
:1074F000E090D001F090D1010091D2011091D30120
:1075000016950795F794E79452DE682FC701E7D4E4
:107510008091D0019091D101A091D201B091D3017D
:107520000296A11DB11D8093D0019093D101A0932B
:10753000D201B093D301219704C055247724442469
:107540004394209709F0A5CF96E4691641F485E0AD
:10755000F40180935700E89507B600FCFDCF8DE05D
:107560003EDE82E080936F009CC0833471F4009112
:10757000D0011091D1011BDE90E021E0F8010C0157
:1075800020935700E89511247CCE833619F5E090BE
:10759000D001F090D1010091D2011091D30107DE0A
:1075A000F701E16090E021E00C0120935700E8959D
:1075B000112482E090E0A0E0B0E0E80EF91E0A1F7E
:1075C0001B1FE092D001F092D1010093D2011093E1
:1075D000D30157CE8D3661F4E091D001F091D10105
:1075E00085E080935700E89507B600FCFDCF49CEB3
:1075F000823551F4E091D001F091D10105911491BF
:10760000812FEDDD802F4CC0843421F5E090D00136
:10761000F090D1010091D2011091D30116950795F8
:10762000F794E794C4DD682FC70159D48091D00145
:107630009091D101A091D201B091D3010296A11DE8
:10764000B11D8093D0019093D101A093D201B0934A
:10765000D30117CE843609F5E090D001F090D10126
:107660000091D2011091D301D801C701B695A79519
:10767000979587952CD4B3DD82E090E0A0E0B0E050
:10768000E80EF91E0A1F1B1FE092D001F092D101F3
:107690000093D2011093D30104C08B3111F08FE31A
:1076A0009EDD83E08093E9009091E8008091E800FE
:1076B0008E778093E80095FF04C010C08EB38823B6
:1076C000C9F08091E80080FFF9CF8091E8008E77C3
:1076D0008093E80003C08EB3882361F08091E800B6
:1076E00080FFF9CF84E08093E9008091E8008B77F8
:1076F0008093E800DF91CF911F910F91FF90EF9061
:10770000DF90CF90BF90AF909F908F907F906F90C1
:107710005F904F9008959091D801892F8F77813293
:1077200049F58091D9018032A1F0813219F5913A61
:1077300009F58091E800877F8093E8008DE091E073
:1077400067E070E0FBD18091E8008B778093E800E0
:107750000895913279F48091E800877F8093E80062
:107760008DE091E067E070E04DD28091E8008E7787
:107770008093E800089582E061EC42E0A7D083E0C6
:1077800061E842E1A3D084E060E842E19FC084B7B1
:10779000877F84BF88E10FB6F894809360001092D1
:1077A00060000FBE20E880E090E00FB6F8942093D0
:1077B0006100809361000FBE81E085BF92E095BFBC
:1077C0003F9AE1E6F0E0208310824798109289000A
:1077D0008DE78093880090936F0083E08093810011
:1077E000E6C04091000850910108109201081092E3
:1077F000000824B714BE88E10FB6F89480936000A7
:10780000109260000FBEE0E0F0E0859194918F5FF0
:107810009F4F71F020FD0BC021FD0AC0283041F4BC
:107820008091090190910A014817590709F05ADC23
:10783000AEDF78941092CF011092CE010CC0EDDC37
:1078400034D38091CE019091CF018151974210F0B5
:107850001092140157DC80911401882381F78091E4
:10786000E00081608093E0003DDC80E090E00895DE
:10787000FA01923049F0933061F09130F9F485E1EA
:1078800091E022E130E01EC087E291E02EE330E09B
:1078900019C0882329F485E691E024E030E012C085
:1078A000813029F489E691E022E230E00BC0823099
:1078B00029F487E991E028E130E004C080E090E01D
:1078C00020E030E091838083C90108958093E9002E
:1078D0008091EB0081608093EB001092ED0060934B
:1078E000EC004093ED008091EE00881F8827881FF0
:1078F00008958091D80188238CF403C08EB3882327
:10790000B1F08091E80082FFF9CF8091E8008B7799
:107910008093E80008958EB3882349F08091E800B1
:1079200080FFF9CF8091E8008E778093E80008957A
:10793000EF92FF920F931F9345D04CD008ED10E0CB
:10794000F80180818F778083808180688083808147
:107950008F7D808319BC1EBA1092D60180EEE82E6E
:10796000F12CF70180818B7F8083F8018081816019
:10797000808380E060E042E0A9DFE1EEF0E080811A
:107980008E7F8083E2EEF0E0808181608083808161
:1079900088608083F70180818E7F8083F8018081F9
:1079A000806180831F910F91FF90EF900895E7ED24
:1079B000F0E08081816080838AE482BF81E08093EF
:1079C000D701B6CFE8EDF0E080818E7F8083109202
:1079D000E20008951092DA001092E10008951F92DB
:1079E0000F920FB60F9211242F933F934F935F93F3
:1079F0006F937F938F939F93AF93BF93EF93FF9377
:107A00008091DA0080FF1AC08091D80080FF16C0F4
:107A10008091DA008E7F8093DA008091D90080FF18
:107A20000AC019BC82E089BD09B400FEFDCF81E027
:107A30008EBB3AD203C019BC1EBA36D28091E10087
:107A400080FF17C08091E20080FF13C08091E200A8
:107A50008E7F8093E2008091E20080618093E2005B
:107A60008091D80080628093D80019BC85E08EBBDD
:107A70001BD28091E10084FF2BC08091E20084FF43
:107A800027C019BC82E089BD09B400FEFDCF8091FA
:107A9000D8008F7D8093D8008091E1008F7E809305
:107AA000E1008091E2008F7E8093E2008091E2000D
:107AB00081608093E2008091D601882331F4809127
:107AC000E30087FD02C081E001C084E08EBBECD101
:107AD0008091E10083FF21C08091E20083FF1DC0FF
:107AE0008091E100877F8093E10082E08EBB10925D
:107AF000D6018091E1008E7F8093E1008091E200C9
:107B00008E7F8093E2008091E20080618093E200AA
:107B100080E060E042E0DADEC7D1FF91EF91BF91F3
:107B2000AF919F918F917F916F915F914F913F9115
:107B30002F910F900FBE0F901F9018959C014091B0
:107B4000DE015091DF014617570718F4F90190E064
:107B500044C06115710511F0AB01F8CF8091E800C8
:107B60008E778093E80040E050E0F0CF8EB388231A
:107B700009F444C0853009F443C08091E80083FFD4
:107B800002C081E008958091E80082FD31C08091BB
:107B9000E80080FF22C08091F3009091F200782FDE
:107BA00060E0292F30E0262B372B07C0819180938E
:107BB000F100415050402F5F3F4F4115510519F0E2
:107BC0002830310598F390E02830310509F491E030
:107BD0008091E8008E778093E8004115510531F6D9
:107BE000992321F605C08EB3882341F0853041F0FA
:107BF0008091E80082FFF7CF80E0089582E0089549
:107C000083E008959C016115710529F48091E800D5
:107C10008B778093E800F90126C08EB3882391F119
:107C2000853091F18091E80083FF02C081E00895E2
:107C30008091E80082FFF1CF06C08091F10081932E
:107C40006150704059F02091F3008091F200322F82
:107C500020E090E0822B932B892B79F78091E8002C
:107C60008B778093E80061157105B9F605C08EB376
:107C7000882341F0853041F08091E80080FFF7CF04
:107C800080E0089582E0089583E008950F931F93A4
:107C9000DF93CF9300D0CDB7DEB7E8EDF1E0809170
:107CA000F100819381E0E03EF807C9F734DD80916F
:107CB000E80083FFE4C08091D8019091D90195300C
:107CC00009F46DC0963040F4913081F1913070F03C
:107CD000933009F0D4C02AC0983009F4A3C0993079
:107CE00009F4B2C0963009F0CAC07CC0803809F4EB
:107CF000C6C0823809F0C3C08091DC0187708093D0
:107D0000E9008091EB001092E9002091E800277FC4
:107D10002093E80090E025E0969587952A95E1F775
:107D200081708093F1001092F10087C0882319F0D0
:107D3000823009F0A4C08F71823009F0A0C0809118
:107D4000DA01882331F52091DC01277009F497C00E
:107D50002093E9008091EB0080FF1BC0933021F459
:107D60008091EB00806213C08091EB008061809372
:107D7000EB0081E090E002C0880F991F2A95E2F79E
:107D80008093EA001092EA008091EB008860809373
:107D9000EB001092E9008091E800877F51C08823B2
:107DA00009F06DC01091DA011F770FB7F894809138
:107DB000E800877F8093E8009CDD8091E80080FFE9
:107DC000FCCF8091E3008078812B8093E300806872
:107DD0008093E300112311F482E001C083E08EBBA5
:107DE0000FBF4DC08058823008F049C08091DA0141
:107DF0009091DB016091DC01AE014F5F5F4F38DD98
:107E0000BC01009709F43BC08091E800877F809314
:107E1000E80089819A8192DE8091E8008B778093D7
:107E2000E8002DC0803859F58091E800877F809365
:107E3000E8008091D6018093F1008091E8008E7770
:107E40008093E80056DD1BC08823C9F49091DA01C5
:107E50009230A8F48091E800877F8093E8009093A7
:107E6000D60147DD8091D601882331F48091E3006B
:107E700087FD02C081E001C084E08EBB7CDC809184
:107E8000E80083FF0AC08091EB0080628093EB00E2
:107E90008091E800877F8093E8000F900F90CF914A
:107EA000DF911F910F91089508951F938EB388233A
:107EB00061F01091E9001092E9008091E80083FFE1
:107EC00001C0E4DE17701093E9001F910895F9993D
:107ED000FECF92BD81BDF89A992780B50895262FCF
:107EE000F999FECF1FBA92BD81BD20BD0FB6F8949F
:0E7EF000FA9AF99A0FBE01960895F894FFCF02
:107EFE004341544552494E41007777000800000037
:107F0E00000000080112011001020000089A230C63
:107F1E000001000201000109023E00020100803250
:107F2E0009040000010202010005240010010424CE
:107F3E0002040524060001070582030800FF090458
:107F4E000100020A000000070504021000010705E7
:107F5E00830210000104030904220341006400613E
:107F6E00006600720075006900740020004600650E
:107F7E00006100740068006500720020003300325A
:107F8E0000750034000000180341006400610066B3
:107F9E00007200750069007400200049006E0064D4
:107FAE000075007300740072006900650073002094
:0A7FBE00004C004C004300000000DE
:040000030000700089
:00000001FF
